:020000040800F2
:100000002812002039020008553F00084D3F000823
:10001000513F0008C1070008454B000800000000E0
:10002000000000000000000000000000C93F0008C0
:100030006D09000800000000C53F000821400008CD
:10004000530200085302000853020008530200083C
:10005000530200085302000853020008530200082C
:10006000530200085302000853020008530200081C
:10007000530200085302000853020008530200080C
:10008000530200085302000853020008D507000875
:10009000C507000853020008530200085302000875
:1000A00053020008530200085302000853020008DC
:1000B00053020008530200085302000853020008CC
:1000C00053020008530200085302000853020008BC
:1000D00053020008530200085302000853020008AC
:1000E000530200085302000853020008530200089C
:1000F000530200085302000853020008530200088C
:10010000530200085302000853020008530200087B
:10011000530200085302000853020008530200086B
:1001200053020008050800085302000853020008A3
:10013000530200085302000853020008F5070008A4
:10014000E5070008530200085302000853020008A4
:10015000530200081508000853020008354B000838
:10016000530200085302000853020008530200081B
:100170005302000853020008530200080000000068
:10018000530200085302000800F002F800F045F89E
:100190000AA090E8000C82448344AAF10107DA45E2
:1001A00001D100F03AF8AFF2090EBAE80F0013F0EF
:1001B000010F18BFFB1A43F00103184758860000CF
:1001C00078860000103A24BF78C878C1FAD8520760
:1001D00024BF30C830C144BF04680C6070470000C1
:1001E0000023002400250026103A28BF78C1FBD840
:1001F000520728BF30C148BF0B6070471FB507F0DA
:1002000092FD9DE8030000F06DF900F03DF91FBD7F
:1002100010B5002000F007FA10BD00F034FA1146C6
:10022000FFF7ECFF07F072FA00F052FA03B4FFF7A1
:10023000EFFF03BC00F020FA094880470948004757
:10024000FEE7FEE7FEE7FEE7FEE7FEE7FEE7FEE786
:10025000FEE7FEE704480549054A064B70470000E3
:100260005540000889010008280C002028120020B1
:10027000280E0020280E002070B5064600F016F962
:10028000056806F10B0020F00704B4429CBF002073
:1002900070BD2B466A68BAB11068A04210D304F151
:1002A000080188423CBF5068586007D35168101954
:1002B00041601168091B016058601460101D70BD19
:1002C00013465268002AE7D12146284600F0F6F886
:1002D0000028DED170BD53EA020C00F069802DE9E0
:1002E000F04B4FF00006002B1FBFB3FA83F503FA63
:1002F00005F424FA05F65E4012BF1643B2FA82F501
:1003000002FA05F4C5F120051EBF22FA05FC44EAF5
:100310000C04203556EA044C4FEA144418BF641C00
:100320004FF000084FF00009904271EB030C39D3F5
:10033000002919BFB1FA81F701FA07F6B0FA80F780
:1003400000FA07F6C7F120071EBF20FA07FC46EAAD
:100350000C062037B6FBF4FCA7EB0507103F07F0AF
:100360001F0BCBF120062CFA06F60CFA0BFB44BF50
:10037000B3460026202FA4BF5E464FF0000B5BEA79
:10038000060C08BF4FF0010B19EB0B0948EB0608F0
:10039000ABFB027C06FB02CC0BFB03CCC01B71EB5E
:1003A0000C01C1E70B46024641464846BDE8F08BCA
:1003B00013B5084318BF4FF0FF300146AFF300807C
:1003C000BDE81C4070470B460146184600F0E7B8F0
:1003D00010B5203AC0F00B80B1E81850A0E81850D2
:1003E000B1E81850A0E81850203ABFF4F5AF5FEA22
:1003F000027C24BFB1E81850A0E8185044BF18C9C7
:1004000018C0BDE810405FEA827C24BF51F8043B6D
:1004100040F8043B08BF7047D20728BF31F8023BC1
:1004200048BF11F8012B28BF20F8023B48BF00F855
:10043000012B70474FF0000200B5134694469646D4
:10044000203922BFA0E80C50A0E80C50B1F12001E7
:10045000BFF4F7AF090728BFA0E80C5048BF0CC095
:100460005DF804EB890028BF40F8042B08BF7047F3
:1004700048BF20F8022B11F0804F18BF00F8012B65
:10048000704770477047704770B5064C7C44064D06
:100490007D4404E02046016808448047241DAC42A6
:1004A000F8D170BDA4830000A48300000048704709
:1004B00018000020704770477047704738B50446F1
:1004C0000A4600206946AFF30080002808BF38BD07
:1004D00002460099204600F081F8012038BD012035
:1004E00000F0C2B8F8B5AFF30080054600200C4616
:1004F000102000BF0646A819A0420DD93246694611
:100500000020AFF30080070008BF00F0ADF80098AE
:10051000A04218BF0546C419FFF7C8FF056007468B
:10052000F01D20F007004619284600F00AF8B442F2
:1005300008BFF8BDA21B31463868BDE8F84000F09E
:100540004DB800210160C0E90110704710207047CC
:1005500070B50446051FFFF7A9FF0068002C14BF03
:10056000446870BD002C18BFAC423CBF2046646894
:10057000F8D301680A18AA4218BF456003D12A6857
:1005800005461144016028684119A1421CBF6C60F6
:1005900070BD6168696021680844286070BD2DE9FC
:1005A000F041074615460E461020FFF765FE040091
:1005B0000AD06760C4E9026500F00CF801682160A8
:1005C00004600020BDE8F0810120FBE7004870478F
:1005D0001000002000487047480000200346406893
:1005E0008C46002818BF88423CBF03464068F8D3B9
:1005F00018681844884207D00CF1030020F0070067
:10060000001D411A521A0146081D0A60FFF7A0BFDB
:1006100010B5002000F06AF8FFF7FAFDBDE81040C1
:10062000012000F029B82DE9F0410646FFF7D2FF7E
:100630008046454613E016B1E068B0420ED120680E
:100640002860D4E90101D8F8007088472046FFF7F8
:100650007FFFD8F80000B842EBD100E025462C68B7
:10066000002CE8D1BDE8F08110B500F047F8BDE8F6
:10067000104000F036B8000001491820ABBEFEE77C
:100680002600020070477546FFF7A0FFAE46050042
:100690006946534620F00700854618B020B5FFF79D
:1006A000D9FDBDE820404FF000064FF000074FF0A5
:1006B00000084FF0000BAC46ACE8C009ACE8C0093C
:1006C000ACE8C009ACE8C00921F007018D467047CD
:1006D00010B50446AFF300802046BDE81040FFF798
:1006E000A5BD002801D0FFF7C7BF704710B500F0C7
:1006F00047F8BDE81040FFF7F4BF000010B501282F
:1007000005D0002103A000F021F8012010BD09A1AF
:10071000F8E7000053494752544D454D3A204F7574
:1007200074206F662068656170206D656D6F7279E9
:10073000000000003A2048656170206D656D6F72A1
:100740007920636F727275707465640070B50546C8
:100750000C460A2000E06D1C00F02AF835B128781C
:100760000028F8D102E0641C00F022F814B12078CF
:100770000028F8D1BDE870400A2000F019B8000048
:1007800010B5002102A0FFF7E1FF012010BD00001D
:10079000534947414252543A2041626E6F726D6133
:1007A0006C207465726D696E6174696F6E00000013
:1007B00008B569468DF800000320ABBE08BD0000F7
:1007C000FFE7FEE780B540F62420C2F2000000F00B
:1007D000BFFB80BD80B540F62420C2F2000000F0CF
:1007E000B7FB80BD80B540F64C20C2F2000000F09F
:1007F000AFFB80BD80B540F64C20C2F2000000F097
:10080000A7FB80BD80B540F67420C2F2000001F065
:10081000A5F880BD80B540F6D420C2F2000001F0FA
:100820009DF880BD82B001900198007810384AF69A
:10083000AB21CAF6AA21A0FB011000090090009983
:1008400047F6B850C0F60000405C0199C8650098B2
:10085000042807D3FFE701990868042262F309001E
:10086000886506E00199086840F2FF329043886588
:10087000FFE70198806D02B07047000086B00590D8
:1008800000208DF813000598806A03900598806910
:1008900010BBFFE70398029003281BD80299DFE8FA
:1008A00001F0020D0218059890F82F00C00720B142
:1008B000FFE701208DF81300FFE70CE00598C06A00
:1008C000B0F1C07F04D1FFE701208DF81300FFE7EE
:1008D00001E000E0FFE745E005988069B0F5005FC2
:1008E00025D1FFE70398019003281ED80199DFE87E
:1008F00001F00206021101208DF8130016E00598A0
:1009000090F82F00C00720B1FFE701208DF81300F9
:10091000FFE70BE00598C06AB0F1C07F04D1FFE7A4
:1009200001208DF81300FFE700E0FFE719E00398CE
:100930000090032804D3FFE70098032804D00EE0BA
:1009400001208DF813000BE0059890F82F00C007E8
:1009500020B1FFE701208DF81300FFE700E0FFE77B
:10096000FFE7FFE79DF8130006B0704770470000EF
:1009700072B6FFE7FEE7000084B002900191029892
:1009800090F820008DF803009DF80300012805D0A1
:10099000FFE79DF8030002280AD1FFE7019A0298B9
:1009A000016848691043486100208DF80F0008E095
:1009B0000299486A40F48020486201208DF80F00B7
:1009C000FFE79DF80F0004B07047000088B0069064
:1009D000059104920393069890F820008DF8070083
:1009E00006980068806800900598806808B9FFE75D
:1009F00000E0FFE79DF80700012806D0FFE79DF81B
:100A00000700022840F08080FFE79DF803004007C0
:100A100000280CD4FFE79DF803000007002806D447
:100A2000FFE79DF80300C006002864D5FFE70098A3
:100A3000C0F3016002900299012088400399086088
:100A40000598806868B9FFE705980168C06840EAC2
:100A5000415006990968029A01EB0211C1F8800120
:100A60000EE005994A688868C96840EAC2000843F0
:100A700006990968029A01EB0211C1F88001FFE7AB
:100A80000598006906990968029A01EB0211C1F8FC
:100A900084010598007D01280CD1FFE706980068C5
:100AA000029900EB0111D1F8840140F48070C1F883
:100AB0008401FFE70498406806990968029A01EBEF
:100AC0000211C1F88C010498006806990968029A1D
:100AD00001EB0211C1F8880106980068029900EB49
:100AE0000111D1F8800140F00100C1F8800100201F
:100AF0008DF81F0011E00699486A40F40010486222
:100B000001208DF81F0008E00699486A40F4802013
:100B1000486201208DF81F00FFE79DF81F0008B014
:100B20007047000086B004900391049890F820006C
:100B30008DF803009DF80300012806D0FFE79DF81B
:100B40000300022840F0B080FFE746F20040C4F204
:100B5000000001900199D1F8000240F00100C1F8B5
:100B600000020199D1F8000220F47C50C1F8000283
:100B70000398426A0199D1F8000240EA0220C1F8C4
:100B800000020398406900F01F0101208840029094
:100B9000029A0199D1F81C029043C1F81C020398F3
:100BA000C069F0B9FFE7029A0199D1F80C029043AD
:100BB000C1F80C02039A9088D168526940EA01405A
:100BC000019901EBC201C1F84002039A10889168B3
:100BD000526940EA0140019901EBC201C1F84402A7
:100BE000FFE70398C06901281ED1FFE7029A019927
:100BF000D1F80C021043C1F80C02039A90881168D6
:100C0000526940EA0140019901EBC201C1F840027A
:100C1000039A90899168526940EA0140019901EB79
:100C2000C201C1F84402FFE70398806940B9FFE7B9
:100C3000029A0199D1F804029043C1F8040207E036
:100C4000029A0199D1F804021043C1F80402FFE7A7
:100C50000398006940B9FFE7029A0199D1F814029C
:100C60009043C1F8140207E0029A0199D1F81402E6
:100C70001043C1F81402FFE70398006A012808D165
:100C8000FFE7029A0199D1F81C021043C1F81C0237
:100C9000FFE70199D1F8000220F00100C1F800023D
:100CA00000208DF8170008E00499486A40F480207D
:100CB000486201208DF81700FFE79DF8170006B085
:100CC0007047000081B0009001B0704786B004907A
:100CD000039102920193049890F820008DF803008C
:100CE0009DF80300012806D0FFE79DF803000228C5
:100CF00040F0E880FFE7039880B9FFE704980068B8
:100D0000C068800748B9FFE70499486A40F40010BA
:100D1000486201208DF81700DDE00FE004980068BC
:100D20000069800748B9FFE70499486A40F4001059
:100D3000486201208DF81700CDE0FFE704980068B5
:100D4000039900EB0110D0F8B00100F00400029903
:100D500088600298806858B9FFE704980068039992
:100D600000EB0110D0F8B001400D029908600AE0D4
:100D700004980068039900EB0110D0F8B001C00896
:100D800002994860FFE704980068039900EB01109E
:100D9000D0F8B00100F002000299C8600498006821
:100DA000039900EB0110D0F8B40100F00F000828FF
:100DB00004D3FFE70299082008610BE0049800685B
:100DC000039900EB0110D0F8B40100F00F00029974
:100DD0000861FFE704980068039900EB0110D0F860
:100DE000B40180B2000A02998861049800680399EE
:100DF00000EB0110D0F8B401000C0299486104988E
:100E00000068039900EB0110D0F8B801019908704F
:100E100004980068039900EB0110D0F8B801000AAB
:100E20000199487004980068039900EB0110D0F80C
:100E3000B801000C0199887004980068039900EBD0
:100E40000110D0F8B801000E0199C870049800682C
:100E5000039900EB0110D0F8BC01019908710498C6
:100E60000068039900EB0110D0F8BC01000A019959
:100E7000487104980068039900EB0110D0F8BC0198
:100E8000000C0199887104980068039900EB011027
:100E9000D0F8BC01000E0199C871039838B9FFE77A
:100EA00004980168C86840F02000C86006E0049813
:100EB0000168086940F020000861FFE700208DF814
:100EC000170008E00499486A40F480204862012035
:100ED0008DF81700FFE79DF8170006B07047000077
:100EE00083B0029000200190029890F820008DF8C5
:100EF00003009DF80300012805D0FFE79DF80300DB
:100F0000022822D1FFE7029800688068400100288B
:100F100004D5FFE7019801300190FFE702980068CF
:100F200080680001002804D5FFE701980130019096
:100F3000FFE7029800688068C000002804D5FFE73A
:100F4000019801300190FFE7FFE7019803B0704777
:100F500080B58AB00990002008900998006840691F
:100F600007900998006840680690099800688068B2
:100F7000059009980068C0680490099800680069A5
:100F8000039009980068806902909DF81C00C007D2
:100F9000002800F09480FFE79DF81400C00758B3C4
:100FA000FFE709980168012088609DF81400800718
:100FB000002804D5FFE7099800F020FC1BE09DF80D
:100FC00014004007002805D5FFE7089840F40060AA
:100FD00008900FE09DF814000007002805D5FFE7F2
:100FE000089840F48050089003E0099800F002FC53
:100FF000FFE7FFE7FFE7FFE79DF81500C00760B3D5
:10100000FFE7099801684FF4807088609DF815002B
:101010008007002804D5FFE7099800F0F7FB1BE0E4
:101020009DF815004007002805D5FFE7089840F413
:10103000005008900FE09DF815000007002805D526
:10104000FFE7089840F48040089003E0099800F01A
:10105000D9FBFFE7FFE7FFE7FFE79DF81600C007B2
:1010600060B3FFE7099801684FF4803088609DF80D
:1010700016008007002804D5FFE7099800F0CEFB92
:101080001BE09DF816004007002805D5FFE70898EB
:1010900040F4004008900FE09DF81600000700287B
:1010A00005D5FFE7089840F48030089003E00998E0
:1010B00000F0B0FBFFE7FFE7FFE7FFE7FFE79DF882
:1010C0001C000007002810D5FFE79DF81000C0069F
:1010D000002809D5FFE7089840F4007008900998A7
:1010E00001681020C860FFE7FFE79DF81C0040077B
:1010F00000280FD5FFE79DF810000007002808D54D
:10110000FFE7099801680820C860099800F0DEFA36
:10111000FFE7FFE79DF81C00800700280BD5FFE7DD
:1011200009980068C068800720B1FFE7099800F0BF
:10113000D1FAFFE7FFE79DF81C004006002810D514
:10114000FFE79DF80C00C006002809D5FFE70898C6
:1011500040F4806008900998016810200861FFE75A
:10116000FFE79DF81C00800600280FD5FFE79DF8DB
:101170000C000007002808D5FFE70998016808203F
:101180000861099800F0E4FAFFE7FFE79DF81C000A
:10119000C00600280BD5FFE70998006800698007A2
:1011A00020B1FFE7099800F0D7FAFFE7FFE79DF8C5
:1011B0001E00800700280FD5FFE79DF81800C00625
:1011C000002808D5FFE709980168102048600998B1
:1011D00000F0C6FAFFE7FFE79DF81E00C00778B1F0
:1011E000FFE79DF818000007002808D5FFE70998D9
:1011F000016808204860099800F014FBFFE7FFE74A
:101200009DF81D000006002840F18D80FFE79DF845
:1012100018004007002840F18180FFE79DF81D007D
:10122000C00750B1FFE79DF80800C00728B1FFE7ED
:10123000089840F001000890FFE79DF81D00800726
:1012400000280BD5FFE79DF808008007002805D58A
:10125000FFE7089840F002000890FFE79DF81D00A6
:10126000400700280BD5FFE79DF80800400700283D
:1012700005D5FFE7089840F004000890FFE79DF8C7
:101280001D000007002848D5FFE79DF8080010F072
:10129000700F42D0FFE7029800F070000146019104
:1012A000102814D0FFE70198202815D0FFE70198F7
:1012B000302816D0FFE70198402817D0FFE70198A3
:1012C000502818D0FFE70198602819D01DE0089831
:1012D00040F00800089019E0089840F010000890CD
:1012E00014E0089840F0200008900FE0089840F0C3
:1012F000400008900AE0089840F08000089005E05F
:10130000089840F48070089000E0FFE709980168B1
:10131000886920F070008861FFE7FFE7099801689D
:1013200004204860FFE7089848B1FFE7089A099948
:10133000486A104348620998FFF7C4FCFFE70AB007
:1013400080BD000080B584B00290029820B9FFE70C
:1013500001208DF80F00E0E0029890F8200020B9FD
:10136000FFE7029800F0DEF8FFE7029801680868DE
:1013700040F00100086000F02DFF0190FFE70298A7
:1013800000684068C007A8B9FFE700F023FF019993
:10139000401A0B280DD3FFE70299486A40F4003049
:1013A00048620299052081F8200001208DF80F0085
:1013B000B3E0E4E702980168086820F002000860E2
:1013C00000F008FF0190FFE702980068406880077E
:1013D000002815D5FFE700F0FDFE0199401A0B2803
:1013E0000DD3FFE70299486A40F400304862029941
:1013F000052081F8200001208DF80F008DE0E3E743
:101400000298007E012807D1FFE70298016808686A
:1014100040F08000086006E002980168086820F04B
:1014200080000860FFE70298407E012807D1FFE7AF
:1014300002980168086840F04000086006E00298E1
:101440000168086820F040000860FFE70298807E8D
:10145000012807D1FFE702980168086840F02000E2
:10146000086006E002980168086820F02000086023
:10147000FFE70298C07E012807D1FFE702980168C4
:10148000086820F01000086006E00298016808680B
:1014900040F010000860FFE70298007F012807D1A4
:1014A000FFE702980168086840F00800086006E05D
:1014B00002980168086820F008000860FFE70298B9
:1014C000407F012807D1FFE702980168086840F0D3
:1014D0000400086006E002980168086820F0040033
:1014E0000860FFE7029B19685A689868D3F80CC037
:1014F00040EA0C00D3F810C040EA0C005B691843C6
:10150000013A1043C861029900204862029A012101
:1015100082F820108DF80F00FFE79DF80F0004B04F
:1015200080BD000080B592B01190002010900F9007
:101530000E900D900C901198006846F20041C4F294
:101540000001884252D1FFE740F27400C2F200006D
:101550000168013101600068012812D1FFE7FFE74F
:1015600000200B9043F64000C4F20200016841F0F5
:1015700000710160006800F000700B900B98FFE7AD
:10158000FFE7FFE700200A9043F63000C4F20200B4
:10159000016841F008010160006800F008000A904D
:1015A0000A98FFE703200C9002210D91002105917C
:1015B0000E910F900920109040F60040C4F20200F6
:1015C0000CA900F013FC059A13200490114600F0BA
:1015D0009BFE049800F08EFE059A1420069011469A
:1015E00000F092FE069800F085FE6DE0119800680C
:1015F00046F60001C4F20001884264D1FFE7FFE72C
:101600000020099043F64000C4F20200016841F056
:1016100080610160006800F0806009900998FFE730
:1016200040F27400C2F200000168013101600068FC
:10163000012812D1FFE7FFE70020089043F64000A1
:10164000C4F20200016841F000710160006800F01E
:10165000007008900898FFE7FFE7FFE70020079079
:1016600043F63000C4F20200016841F0020101605B
:10167000006800F0020007900798FFE760200C90D8
:1016800002200D90002002900E9003200F90092060
:10169000109040F20040C4F202000CA900F0A6FB3A
:1016A000029A3F200190114600F02EFE019800F0B2
:1016B00021FE029A40200390114600F025FE039877
:1016C00000F018FEFFE7FFE712B080BD81B0009088
:1016D00001B0704780B58AB009900998002102AA2C
:1016E0006B46FFF7F3FA0298B0F5007F2DD9FFE7BC
:1016F0000298B0F5027F28D8FFE70998006846F203
:101700000041C4F2000188420AD1FFE704F0B6FEAE
:101710000999029AA2F201236A4604F015FC13E02B
:101720000998006846F60001C4F2000188420AD117
:10173000FFE704F0A3FE0999029AA2F201236A4688
:1017400004F002FCFFE7FFE700E0FFE70AB080BD1E
:1017500081B0009001B0704781B0009001B0704737
:1017600081B0009001B0704780B584B002900298BB
:1017700090F8200001282FD1FFE70299022081F87C
:10178000200002980168086820F00100086000F05D
:1017900021FD0190FFE7029800684068C007A8B1EA
:1017A000FFE700F017FD0199401A0B280DD3FFE762
:1017B0000299486A40F4003048620299052081F895
:1017C000200001208DF80F000FE0E4E702990020CF
:1017D00048628DF80F0008E00299486A40F4002042
:1017E000486201208DF80F00FFE79DF80F0004B05C
:1017F00080BD000081B0009001B0704781B00090C2
:1018000001B0704781B0009001B0704781B0009086
:1018100001B0704781B0009001B0704781B0009076
:1018200001B0704781B0009001B0704780B584B0BE
:1018300002900298806D019000F0CCFC009002981C
:1018400090F8350002280DD0FFE702998020486506
:10185000FFE70299002081F83400FFE701208DF8AE
:101860000F0055E002980168086820F01600086033
:1018700002980168486920F0800048610298006C75
:1018800020B9FFE70298806C38B1FFE70298016841
:10189000086820F008000860FFE7029801680868FF
:1018A00020F001000860FFE7029800680068C007A8
:1018B000C8B1FFE700F08EFC0099401A062811D34A
:1018C000FFE70299202048650299032081F835003E
:1018D000FFE70299002081F83400FFE703208DF82C
:1018E0000F0015E0E0E70298C16D3F2088400199A4
:1018F00088600299012081F83500FFE702990020F5
:1019000081F83400FFE7FFE700208DF80F00FFE7C4
:101910009DF80F0004B080BD82B00090009890F850
:101920003500022807D0FFE7009980204865012094
:101930008DF807000EE00099052081F83500009829
:101940000168086820F001000860FFE700208DF8BA
:101950000700FFE79DF8070002B0704780B586B02A
:1019600005900020039040F20000C2F200000068E1
:1019700048F2B511C1F64E31A0FB0110800A029069
:101980000598806D0190019800680490049805996D
:10199000C96DC840000700281AD5FFE70598006800
:1019A00000684007002812D5FFE70598016808681D
:1019B00020F0040008600598C16D08208840019956
:1019C00088600599486D40F001004865FFE7FFE732
:1019D00004980599C96DC840C007A0B1FFE70598F4
:1019E00000684069000600280CD5FFE70598C16D26
:1019F00001208840019988600599486D40F00200F7
:101A00004865FFE7FFE704980599C96DC84040079E
:101A1000002814D5FFE705980068006880070028B3
:101A20000CD5FFE70598C16D0420884001998860B6
:101A30000599486D40F004004865FFE7FFE704980A
:101A40000599C96DC840C006002847D5FFE705982D
:101A500000680068000700283FD5FFE70598C16DC2
:101A6000102088400199886005980068006840034C
:101A700000281AD5FFE705980068006800030028D1
:101A800009D4FFE70598006C20B1FFE70598016CC9
:101A90008847FFE708E00598806C20B1FFE70598CC
:101AA000816C8847FFE7FFE716E00598006800684B
:101AB000C005002807D4FFE705980168086820F0F2
:101AC00008000860FFE70598006C20B1FFE7059863
:101AD000016C8847FFE7FFE7FFE7FFE704980599F8
:101AE000C96DC8408006002840F18D80FFE7059849
:101AF00000680068C006002840F18480FFE7059870
:101B0000C16D2020884001998860059890F83500C3
:101B1000052834D1FFE705980168086820F0160011
:101B2000086005980168486920F0800048610598C0
:101B3000006C20B9FFE70598806C38B1FFE7059885
:101B40000168086820F008000860FFE70598C16D8B
:101B50003F208840019988600599012081F835006F
:101B6000FFE70599002081F83400FFE70598006D34
:101B700020B1FFE70598016D8847FFE77BE00598F6
:101B800000680068400300281AD5FFE70598006840
:101B900000680003002809D4FFE70598406C20B1D5
:101BA000FFE70598416C8847FFE708E00598C06BA0
:101BB00020B1FFE70598C16B8847FFE7FFE720E00A
:101BC000059800680068C005002811D4FFE7059853
:101BD0000168086820F0100008600599012081F86C
:101BE0003500FFE70599002081F83400FFE7FFE7A3
:101BF0000598C06B20B1FFE70598C16B8847FFE7E8
:101C0000FFE7FFE7FFE70598406DA0B3FFE7059802
:101C1000406DC00730B3FFE70599052081F8350016
:101C200005980168086820F001000860FFE7039844
:101C3000013003900299884201D9FFE707E0FFE7EE
:101C4000059800680068C0070028F0D1FFE70599F3
:101C5000012081F83500FFE70599002081F8340064
:101C6000FFE7FFE70598C06C20B1FFE70598C16C5E
:101C70008847FFE7FFE706B080BD000080B586B06B
:101C800004900020039000F0A5FA0290049820B977
:101C9000FFE701208DF81700A3E00498406A08B11F
:101CA000FFE7FFE70499022081F83500FFE7049978
:101CB000002081F83400FFE704980168086820F0EC
:101CC00001000860FFE7049800680068C00790B151
:101CD000FFE700F07FFA0299401A06280AD3FFE7CF
:101CE0000499202048650499032081F835008DF877
:101CF000170076E0E7E7049800680068039003980F
:101D000048F23F01CFF2100108400390049900917E
:101D10004868D1F808C0CB680A6940EA0C0018434B
:101D200010434A6910438A691043CA691043096A1B
:101D300001430398084303900498406A042808D19B
:101D4000FFE70499C86A096B0143039808430390AD
:101D5000FFE70398049909680860049800684069DF
:101D60000390039820F0070003900498416A0398B9
:101D7000084303900498406A04281AD1FFE70498A6
:101D8000816A0398084303900498C06A80B1FFE712
:101D90000498FEF773FD50B1FFE7049940204865B1
:101DA0000499012081F835008DF8170019E0FFE74C
:101DB000FFE703980499096848610498FEF732FD2B
:101DC00001900498C16D3F20884001998860049972
:101DD00000204865049A012182F835108DF817001B
:101DE000FFE79DF8170006B080BD00008EB00D9093
:101DF0000C9100200A90099008900B90FFE70B9837
:101E00000F2800F2CC81FFE70B99012088400A904F
:101E10000C9800680A990840099009980A99884224
:101E200040F0B881FFE70C98406800F003000128FB
:101E300007D0FFE70C98406800F0030002282FD17C
:101E4000FFE70D98806808900B984100032000FA86
:101E500001F10898884308900C98C0680B994900D4
:101E600000FA01F108980843089008980D998860D5
:101E70000D98406808900B99012000FA01F108982C
:101E8000884308900C984068C0F300100B9900FA42
:101E900001F108980843089008980D994860FFE7F9
:101EA0000C98406800F00300032818D0FFE70D9855
:101EB000C06808900B984100032000FA01F10898CF
:101EC000884308900C9880680B99490000FA01F14A
:101ED00008980843089008980D99C860FFE70C9887
:101EE000406800F00300022826D1FFE70D980B9907
:101EF0006FF0030202EA51010844006A08900B984F
:101F000000F0070081000F2000FA01F108988843D3
:101F100008900C9800690B9901F00701890000FAFC
:101F200001F108980843089008980D990B9B02EA64
:101F3000530211440862FFE70D98006808900B985F
:101F40004100032000FA01F10898884308900C989A
:101F5000406800F003000B99490000FA01F108986D
:101F60000843089008980D9908600C9880798007BC
:101F7000002800F00E81FFE7FFE70020079043F6FE
:101F80004400C4F20200016841F48041016000682D
:101F900000F4804007900798FFE70B9820F00300BB
:101FA00043F60801C4F20101405808900B9800F074
:101FB000030081000F2000FA01F10898884308907F
:101FC0000D980021C4F20201884203D1FFE70020EE
:101FD00006905EE00D9840F20041C4F20201884292
:101FE00003D1FFE70120059050E00D9840F6000175
:101FF000C4F20201884203D1FFE70220049042E0CC
:102000000D9840F60041C4F20201884203D1FFE777
:102010000320039034E00D9841F20001C4F2020164
:10202000884203D1FFE70420029026E00D9841F298
:102030000041C4F20201884203D1FFE7052001906C
:1020400018E00D9841F60001C4F20201884203D164
:10205000FFE7062000900AE00D9941F60042C4F225
:1020600002020820914208BF07200090FFE7009875
:102070000190FFE701980290FFE702980390FFE7C5
:1020800003980490FFE704980590FFE705980690F1
:10209000FFE70698C0B20B9901F00301890000FA2E
:1020A00001F108980843089008980B9921F0030162
:1020B00043F60802C4F20102885043F60840C4F215
:1020C00001000068089009990898884308900C98C6
:1020D0008079C006002805D5FFE7099908980843CC
:1020E0000890FFE7089843F60841C4F20101086030
:1020F00043F60C40C4F20100006808900999089862
:10210000884308900C9880798006002805D5FFE761
:102110000999089808430890FFE7089843F60C418E
:10212000C4F20101086043F60440C4F201000068F3
:10213000089009990898884308900C98807980073E
:10214000002805D5FFE70999089808430890FFE79C
:10215000089843F60441C4F20101086043F60040C8
:10216000C4F2010000680890099908988843089013
:102170000C988079C00728B1FFE7099908980843AF
:102180000890FFE7089843F60041C4F20101086097
:10219000FFE7FFE7FFE70B9801300B902FE60EB04B
:1021A0007047000082B00190ADF802108DF8012058
:1021B0009DF8010028B1FFE7BDF802000199886190
:1021C00005E0BDF80200000401998861FFE702B054
:1021D0007047000040F62440C2F2000000687047DB
:1021E00040F20800C2F20000027840F62441C2F238
:1021F00000010868104408607047000080B582B094
:1022000043F60041C4F20201086840F4007008601F
:10221000086840F480600860086840F480700860D6
:10222000032000F08BF80020019000F005F800F08A
:102230003BF8019802B080BD80B582B0009040F2BA
:102240000000C2F20000006840F20801C2F2000182
:102250000A784FF47A71B1FBF2F1B0FBF1F000F0C3
:10226000BFFD20B1FFE701208DF8070018E00098BE
:102270000F280DD8FFE700994FF0FF30002200F043
:1022800043F8009840F20C01C2F20001086003E03C
:1022900001208DF8070003E000208DF80700FFE71C
:1022A0009DF8070002B080BD82B0FFE700200190DA
:1022B00043F64400C4F20200016841F48041016029
:1022C000006800F4804001900198FFE7FFE70020DC
:1022D000009043F64000C4F20200016841F08051D2
:1022E0000160006800F0805000900098FFE702B0A5
:1022F0007047000080B582B08DF807009DF9070097
:1023000005F01AF902B080BD80B586B08DF81700CF
:10231000049103920020029005F026F902909DF9A5
:102320001700019002980499039A01F015FE0146E6
:10233000019805F021F906B080BD000080B582B09B
:102340000190019805F03AF902B080BD80B584B0E3
:1023500002900191029820B9FFE701208DF80F004B
:1023600021E1019843F60041C4F20201096801F03D
:102370000701884212D9FFE7019943F60040C4F2F1
:1023800002000170006800F007000199884204D043
:10239000FFE701208DF80F0005E1FFE702980078C4
:1023A000800700282AD5FFE7029800784007002818
:1023B00009D5FFE743F60801C4F20201086840F4BA
:1023C000E0500860FFE7029800780007002809D570
:1023D000FFE743F60801C4F20201086840F46040D8
:1023E0000860FFE743F60801C4F20201086820F024
:1023F000F000029A926810430860FFE702980078A4
:10240000C00700286ED0FFE702984068012811D16C
:10241000FFE743F60000C4F20200006800F4003158
:102420000020B0EB514F04D1FFE701208DF80F00E1
:10243000B9E02CE002984068022805D0FFE7029836
:102440004068032811D1FFE743F60000C4F2020000
:10245000006800F000710020B0EB516F04D1FFE77D
:1024600001208DF80F009EE010E043F60000C4F25A
:102470000200006800F002010020B0EB510F04D10F
:10248000FFE701208DF80F008DE0FFE7FFE743F63F
:102490000801C4F20201086820F00300029A5268A1
:1024A00010430860FFF796FE0090FFE743F6080030
:1024B000C4F20200006800F00C0002994968B0EB19
:1024C000810F0ED0FFE7FFF785FE0099401A41F219
:1024D0008931884204D3FFE703208DF80F0062E0C2
:1024E000E4E7FFE7019843F60041C4F202010968FE
:1024F00001F00701884212D2FFE7019943F600403C
:10250000C4F202000170006800F0070001998842DF
:1025100004D0FFE701208DF80F0044E0FFE70298A8
:102520000078400700280CD5FFE743F60801C4F205
:102530000201086820F4E050029AD2681043086053
:10254000FFE702980078000700280DD5FFE743F663
:102550000801C4F20201086820F46040029A12697E
:1025600040EAC2000860FFE700F04CF843F60801BB
:10257000C4F202010968C9B20A0947F6A051C0F6BF
:102580000001895CC84040F20001C2F2000108600D
:1025900040F20C00C2F200000068FFF74DFE002080
:1025A0008DF80F00FFE79DF80F0004B080BD00001C
:1025B00040F20000C2F200000068704780B5FFF7EB
:1025C000F7FF43F60801C4F202010968C1F3822251
:1025D00047F6B051C0F60001895CC84080BD0000DC
:1025E00080B5FFF7E5FF43F60801C4F20201096870
:1025F00089B24A0B47F6B051C0F60001895CC84069
:1026000080BD000080B586B0002005900490039046
:10261000029043F60800C4F20200006800F00C00CB
:102620000146019140B1FFE7019804280AD0FFE775
:10263000019808280CD04FE042F20040C0F2F400AC
:1026400002904FE041F60030C0F2B700029049E03E
:1026500043F60400C4F20200016801F03F01059155
:1026600000684002002813D5FFE743F60400C4F2D7
:1026700002000068C0F3881041F60031C0F2B701D3
:10268000A0FB0101059A0023FDF725FE049012E04E
:1026900043F60400C4F202000068C0F3881042F25E
:1026A0000041C0F2F401A0FB0101059A0023FDF7EF
:1026B00012FE0490FFE743F60400C4F20200006833
:1026C00000F44031022000EBD130039004980399CC
:1026D000B0FBF1F0029005E042F20040C0F2F400DD
:1026E0000290FFE7029806B080BD000080B586B07A
:1026F0000490049820B9FFE701208DF8170050E3FB
:1027000004980078C007002800F0A580FFE743F692
:102710000800C4F20200006800F00C00042813D086
:10272000FFE743F60800C4F20200006800F00C0066
:1027300008281ED1FFE743F60400C4F20200006837
:102740004002002815D5FFE743F60000C4F202005E
:10275000006800F400310020B0EB514F08D0FFE7D3
:102760000498406820B9FFE701208DF8170018E3AE
:1027700070E0FFE704984068B0F5803F09D1FFE7BB
:1027800043F60001C4F20201086840F4803008609A
:1027900020E004984068B0F5A02F0DD1FFE743F684
:1027A0000001C4F20201086840F480200860086853
:1027B00040F4803008600CE043F60001C4F20201EE
:1027C000086820F480300860086820F480200860E1
:1027D000FFE7FFE7FFE704984068E8B1FFE7FFF78E
:1027E000F9FC0390FFE743F60000C4F20200006822
:1027F00000F400310020B0EB514F0CD1FFE7FFF7A0
:10280000E9FC0399401A652804D3FFE703208DF8FB
:102810001700C6E2E7E71CE0FFF7DCFC0390FFE7E8
:1028200043F60000C4F20200006800F4003100200A
:10283000B0EB514F0CD0FFE7FFF7CCFC0399401AE7
:10284000652804D3FFE703208DF81700A9E2E7E726
:10285000FFE7FFE7FFE7049800788007002840F1D2
:102860009680FFE743F60800C4F20200006810F00B
:102870000C0F13D0FFE743F60800C4F20200006813
:1028800000F00C0008282CD1FFE743F60400C4F246
:10289000020000684002002823D4FFE743F600004E
:1028A000C4F20200006800F002010020B0EB510FFA
:1028B00009D0FFE70498C068012804D0FFE7012091
:1028C0008DF817006DE243F60001C4F202010868BA
:1028D00020F0F800049A126940EAC2000860FFE79D
:1028E00054E00498C06870B3FFE70021C4F24721A8
:1028F00001200860FFF76EFC0390FFE743F600003D
:10290000C4F20200006800F002010020B0EB510F99
:102910000CD1FFE7FFF75EFC0399401A032804D3AC
:10292000FFE703208DF817003BE2E7E743F60001DD
:10293000C4F20201086820F0F800049A126940EA23
:10294000C200086021E00021C4F247210020086095
:10295000FFF740FC0390FFE743F60000C4F20200DB
:10296000006800F002010020B0EB510F0CD0FFE72F
:10297000FFF730FC0399401A032804D3FFE7032034
:102980008DF817000DE2E7E7FFE7FFE7FFE70498A0
:102990000078000700284BD5FFE70498406918B37A
:1029A000FFE740F68061C4F2472101200860FFF78D
:1029B00011FC0390FFE743F67400C4F202000068C4
:1029C00000F002010020B0EB510F0CD1FFE7FFF740
:1029D00001FC0399401A032804D3FFE703208DF874
:1029E0001700DEE1E7E722E040F68061C4F247210C
:1029F00000200860FFF7EEFB0390FFE743F674004A
:102A0000C4F20200006800F002010020B0EB510F98
:102A10000CD0FFE7FFF7DEFB0399401A032804D32D
:102A2000FFE703208DF81700BBE1E7E7FFE7FFE7CB
:102A3000049800784007002840F1CE80FFE700208E
:102A40008DF8070043F64000C4F202000068C000A1
:102A5000002815D4FFE7FFE70020009043F6400070
:102A6000C4F20200016841F080510160006800F08A
:102A7000805000900098FFE701208DF80700FFE7E5
:102A800047F20000C4F200000068C005002822D40C
:102A9000FFE747F20001C4F20001086840F48070CB
:102AA0000860FFF797FB0390FFE747F20000C4F2CE
:102AB00000000068C00500280CD4FFE7FFF78AFB80
:102AC0000399401A032804D3FFE703208DF8170069
:102AD00067E1EAE7FFE7FFE704988068012809D18A
:102AE000FFE743F67001C4F20201086840F00100FC
:102AF00008601FE00498806805280DD1FFE743F6C1
:102B00007001C4F20201086840F00400086008681F
:102B100040F0010008600CE043F67001C4F20201CD
:102B2000086820F001000860086820F004000860D0
:102B3000FFE7FFE7FFE704988068F8B1FFE7FFF7DA
:102B400049FB0390FFE743F67000C4F202000068FF
:102B500000F002010020B0EB510F0ED1FFE7FFF7AC
:102B600039FB0399401A41F28931884204D3FFE7C7
:102B700003208DF8170014E1E5E71EE0FFF72AFBBC
:102B80000390FFE743F67000C4F20200006800F013
:102B900002010020B0EB510F0ED0FFE7FFF71AFB48
:102BA0000399401A41F28931884204D3FFE7032098
:102BB0008DF81700F5E0E5E7FFE79DF8070001282D
:102BC00009D1FFE743F64001C4F20201086820F092
:102BD00080500860FFE7FFE704988069002800F054
:102BE000DC80FFE743F60800C4F20200006800F052
:102BF0000C00082800F08580FFE70498806902280F
:102C00005CD1FFE76021C4F2472100200860FFF794
:102C1000E1FA0390FFE743F60000C4F20200006807
:102C200000F000710020B0EB516F0CD0FFE7FFF710
:102C3000D1FA0399401A032804D3FFE703208DF843
:102C40001700AEE0E7E70499C869D1F820C04B6AE5
:102C50008A6A40EA0C0040EA8310D2034FF6FF7301
:102C60009A43A2F580321043C96A40EA016043F6F4
:102C70000401C4F2020108606021C4F2472101206E
:102C80000860FFF7A7FA0390FFE743F60000C4F2DD
:102C90000200006800F000710020B0EB516F0CD111
:102CA000FFE7FFF797FA0399401A032804D3FFE7D9
:102CB00003208DF8170074E0E7E721E06021C4F2FB
:102CC000472100200860FFF785FA0390FFE743F6ED
:102CD0000000C4F20200006800F000710020B0EBB8
:102CE000516F0CD0FFE7FFF775FA0399401A0328DC
:102CF00004D3FFE703208DF8170052E0E7E7FFE772
:102D00004AE004988069012804D1FFE701208DF88A
:102D1000170046E043F60400C4F202000068029087
:102D200004988069012831D0FFE7029800F4800000
:102D30000499C969884229D1FFE7029800F03F0051
:102D40000499096A884221D1FFE7029847F6C071C9
:102D500008400499496AB0EB811F17D1FFE7029838
:102D600000F440300499896AC9034FF6FF72914319
:102D7000A1F58031884209D1FFE7029800F0706028
:102D80000499C96AB0EB016F04D0FFE701208DF808
:102D9000170006E0FFE7FFE7FFE700208DF81700C8
:102DA000FFE79DF8170006B080BD000081B00090DD
:102DB0000098042809D1FFE74EF21001CEF200017D
:102DC000086840F00400086008E04EF21001CEF2FE
:102DD0000001086820F004000860FFE701B07047B8
:102DE00080B582B00190019801F0F0F802B080BD8A
:102DF00084B00290019100200090FFE7029890F8C3
:102E00003C00012804D1FFE702208DF80F0044E0C8
:102E10000299012081F83C00FFE7FFE7009820F0CD
:102E2000FF000199C96808430090009820F44070A1
:102E30000199896808430090009820F48060019906
:102E4000496808430090009820F4006001990968DF
:102E500008430090009820F48050019909690843C4
:102E60000090009820F400500199496908430090AF
:102E7000009820F480400199C969084300900098A7
:102E8000029909684864FFE70299002081F83C0034
:102E9000FFE700208DF80F00FFE79DF80F0004B05A
:102EA0007047000085B003900291FFE7039890F807
:102EB0003C00012804D1FFE702208DF813007EE0DA
:102EC0000399012081F83C00FFE7FFE70399022006
:102ED00081F83D00039800684068019003980068FD
:102EE00080680090019820F07000019002980168BD
:102EF0000198084301900198039909684860039874
:102F000000680021C4F2010188423CD0FFE7039829
:102F10000068B0F1804F36D0FFE70398006840F2B8
:102F20000041C4F2000188422DD0FFE703980068F9
:102F300040F60001C4F20001884224D0FFE7039864
:102F4000006840F60041C4F2000188421BD0FFE750
:102F50000398006840F20041C4F20101884212D097
:102F6000FFE70398006844F20001C4F201018842BF
:102F700009D0FFE70398006841F60001C4F20001A0
:102F800088420ED1FFE7009820F080000090029860
:102F90004168009808430090009803990968886088
:102FA000FFE70399012081F83D00FFE70399002026
:102FB00081F83C00FFE700208DF81300FFE79DF843
:102FC000130005B07047000080B582B000900098F3
:102FD00020B9FFE701208DF807003FE0009890F846
:102FE0003D0040B9FFE70099002081F83C000098BF
:102FF00000F038F8FFE70099022081F83D000099C1
:1030000051F8040B01F030F80099012081F84600D6
:10301000FFE70099012081F83E00009981F83F0008
:10302000009981F84000009981F84100FFE7FFE72F
:103030000099012081F84200009981F8430000992D
:1030400081F84400009981F84500FFE700990120CC
:1030500081F83D0000208DF80700FFE79DF807008C
:1030600002B080BD83B00290029800680021C4F2D3
:103070000101884212D1FFE7FFE70020019043F6EB
:103080004400C4F20200016841F0010101600068DF
:1030900000F0010001900198FFE71BE00298006832
:1030A00040F20041C4F20101884212D1FFE7FFE77C
:1030B0000020009043F64400C4F20200016841F091
:1030C00002010160006800F0020000900098FFE734
:1030D000FFE7FFE703B0704780B586B00490039127
:1030E00000208DF80B00FFE7049890F83C000128C1
:1030F00004D1FFE702208DF81700ABE0049901200E
:1031000081F83C00FFE7FFE70499022081F83D00C9
:103110000498006880680190019820F07700019081
:10312000019820F47F400190019804990968886013
:10313000039800680090002872D0FFE700981028DC
:103140006ED0FFE7009820286AD0FFE7009830286B
:1031500066D0FFE70098402855D0FFE70098502838
:1031600037D0FFE70098602840D0FFE7009870282C
:103170000BD0FFE70098B0F5805F05D0FFE700981F
:10318000B0F5005F16D052E055E004980068039B4C
:103190005A689968DB6801F055F8049800688068FF
:1031A0000190019840F07700019001980499096816
:1031B000886040E004980068039B5A689968DB685F
:1031C00001F040F804980168886840F48040886005
:1031D00031E004980068039A5168D26801F01EFA41
:1031E00004980068502101F047F824E00498006832
:1031F000039A5168D26801F039FA04980068602196
:1032000001F03AF817E004980068039A5168D26810
:1032100001F004FA04980068402101F02DF80AE05A
:10322000049800680399096801F026F803E001207A
:103230008DF80B00FFE70499012081F83D00FFE7BE
:103240000499002081F83C00FFE79DF80B008DF801
:103250001700FFE79DF8170006B080BD80B58EB05F
:103260000D9000200C900B900A90099008900D98FA
:1032700000680021C4F20101884223D1FFE7FFE783
:103280000020079043F63000C4F20200016841F0CC
:1032900010010160006800F0100007900798FFE738
:1032A0004FF4D44008900220099000200A900B901F
:1032B00001200C9041F20000C4F2020008A9FEF7C0
:1032C00095FD52E00D98006840F20041C4F2010102
:1032D000884249D1FFE7FFE70020069043F630001F
:1032E000C4F20200016841F480710160006800F4DA
:1032F000807006900698FFE7FFE70020059043F6F0
:103300003000C4F20200016841F00401016000686D
:1033100000F0040005900598FFE7C0200890022007
:1033200001900990002002900A900B9003200390D6
:103330000C9042F20000C4F2020008A90491FEF7CA
:1033400055FD019B029A039804994FF0400CCDF86B
:1033500020C009930A920B920C9040F60000C4F230
:103360000200FEF743FDFFE7FFE70EB080BD00005F
:1033700080B586B004900391029200208DF807007A
:10338000FFE7049890F83C00012804D1FFE70220F1
:103390008DF8170089E00499012081F83C00FFE7CF
:1033A000FFE7029800900C2800F270800099DFE897
:1033B00001F0076D6D6D206D6D6D3A6D6D6D530093
:1033C00004980068039900F06DFF0498016888690B
:1033D00040F00800886104980168886920F00400C2
:1033E00088610398026904980168886910438861BC
:1033F00050E004980068039900F0CAFF049801683F
:10340000886940F40060886104980168886920F444
:10341000806088610398026904980168886940EABD
:103420000220886136E004980068039901F02AF8C8
:1034300004980168C86940F00800C86104980168F0
:10344000C86920F00400C861039802690498016803
:10345000C8691043C8611DE004980068039901F031
:103460008BF804980168C86940F40060C86104984A
:103470000168C86920F48060C861039802690498F3
:103480000168C86940EA0220C86103E001208DF8A4
:103490000700FFE7FFE70499002081F83C00FFE701
:1034A0009DF807008DF81700FFE79DF8170006B09C
:1034B00080BD000080B582B00090009820B9FFE781
:1034C00001208DF807003FE0009890F83D0040B9DA
:1034D000FFE70099002081F83C00009800F038F8E0
:1034E000FFE70099022081F83D00009951F8040B94
:1034F00000F0BAFD0099012081F84600FFE700992D
:10350000012081F83E00009981F83F00009981F880
:103510004000009981F84100FFE7FFE70099012092
:1035200081F84200009981F84300009981F8440035
:10353000009981F84500FFE70099012081F83D00DE
:1035400000208DF80700FFE79DF8070002B080BD5E
:1035500081B0009001B0704780B58CB00A9009919D
:10356000099828B9FFE70A9890F83E0007901CE0F8
:103570000998042805D1FFE70A9890F83F000690C3
:1035800010E00998082805D1FFE70A9890F8400054
:10359000059004E00A9890F841000590FFE705982F
:1035A0000690FFE706980790FFE70798012804D0E8
:1035B000FFE701208DF82F00AFE0099828B9FFE759
:1035C0000A99022081F83E001EE00998042806D1DD
:1035D000FFE70A99022081F83F00049012E0099861
:1035E000082806D1FFE70A99022081F840000390DD
:1035F00005E00A99022081F841000390FFE7039853
:103600000490FFE70498FFE70A98006809990122EF
:10361000019200F0FBFD01980A9909680022C4F2AA
:103620000102914202900CD0FFE70A9800684FF621
:103630000041CBF6FE710844B0FA80F040090290D8
:10364000FFE70298C00738B1FFE70A980168486CA5
:1036500040F400404864FFE70A9800680021C4F283
:10366000010188423CD0FFE70A980068B0F1804F22
:1036700036D0FFE70A98006840F20041C4F200012A
:1036800088422DD0FFE70A98006840F60001C4F296
:103690000001884224D0FFE70A98006840F6004104
:1036A000C4F2000188421BD0FFE70A98006840F28C
:1036B0000041C4F20101884212D0FFE70A98006875
:1036C00044F20001C4F20101884209D0FFE70A98E0
:1036D000006841F60001C4F20001884212D1FFE700
:1036E0000A980068806800F007000890089806288B
:1036F00007D0FFE70A980168086840F001000860F9
:10370000FFE706E00A980168086840F001000860D9
:10371000FFE700208DF82F00FFE79DF82F000CB089
:1037200080BD000080B586B00590049105980068C2
:103730000499002200F06AFD05980168012000222A
:10374000C4F20102914203900CD0FFE70598006893
:103750004FF60041CBF6FE710844B0FA80F0400904
:103760000390FFE70398C007D8B1FFE7FFE705988C
:103770000068006A41F21111084210D1FFE7059874
:103780000068006A40F24441084207D1FFE705980B
:103790000168486C20F400404864FFE7FFE7FFE75A
:1037A000FFE7FFE705980068006A41F2111108423F
:1037B00010D1FFE705980068006A40F244410842D2
:1037C00007D1FFE705980168086820F0010008604C
:1037D000FFE7FFE7FFE7049828B9FFE70599012015
:1037E00081F83E001EE00498042806D1FFE7059901
:1037F000012081F83F00029012E00498082806D1C9
:10380000FFE70599012081F84000019005E0059946
:10381000012081F841000190FFE701980290FFE745
:103820000298FFE7002006B080BD000082B0019042
:10383000ADF8021002B0704781B0009001B070473F
:1038400080B592B01190119800680068109011989E
:103850000068C0680F901198006840690E900020C1
:103860000D900C90109800F00F000D900D9888B9F5
:10387000FFE79DF84000800600280AD5FFE79DF885
:103880003C008006002804D5FFE7119800F084FF73
:1038900002E2FFE70D98002800F0C280FFE79DF8E4
:1038A0003800C00738B9FFE7BDF83C0010F4907F3E
:1038B00000F0B680FFE79DF84000C00758B1FFE771
:1038C0009DF83D00C00730B1FFE71199486C40F00A
:1038D00001004864FFE79DF84000400700280BD531
:1038E000FFE79DF83800C00730B1FFE71199486C39
:1038F00040F002004864FFE79DF840008007002880
:103900000BD5FFE79DF83800C00730B1FFE71199EC
:10391000486C40F004004864FFE79DF84000000751
:10392000002811D5FFE79DF83C008006002805D44B
:10393000FFE79DF83800C00730B1FFE71199486CE8
:1039400040F008004864FFE71198406C002866D0FA
:10395000FFE79DF84000800600280AD5FFE79DF8A4
:103960003C008006002804D5FFE7119800F014FF02
:10397000FFE7119800684069C0F380100C9011981F
:10398000406C0007002804D4FFE70C9800283ED0C4
:10399000FFE7119800F0A2FE119800684069400608
:1039A00000282FD5FFE7FFE7FFE71198006850E8F0
:1039B000050F20F040000B90FFE70B99119802686B
:1039C00042E805100028F0D1FFE7FFE71198C06B2F
:1039D00098B1FFE71198C16B44F2C160C0F60000D6
:1039E00008651198C06BFDF797FF28B1FFE71198A4
:1039F000C06B016D8847FFE703E01198FFF71CFFDC
:103A0000FFE703E01198FFF717FFFFE706E01198C3
:103A1000FFF712FF119900204864FFE7FFE73BE141
:103A20001198006B012840F01781FFE79DF84000D6
:103A3000C006002840F11081FFE79DF83C00C00659
:103A4000002840F10981FFE7FFE700200A90119864
:103A5000006800680A901198006840680A900A9807
:103A6000FFE71198006840694006002840F19A80FD
:103A7000FFE71198C06B00684068ADF82600BDF8FC
:103A80002600002875D0FFE7BDF826001199898D22
:103A900088426EDAFFE7BDF826001199C8851198B3
:103AA000C06BC069B0F5807F58D0FFE7FFE7FFE744
:103AB0001198006850E8030F20F480700890FFE729
:103AC00008991198026842E803100028F0D1FFE736
:103AD000FFE7FFE7FFE71198006850E8050F20F0C7
:103AE00001000790FFE707991198026842E8051066
:103AF0000028F0D1FFE7FFE7FFE7FFE71198006834
:103B000050E8050F20F040000690FFE70699119855
:103B1000026842E805100028F0D1FFE7FFE711999D
:103B2000202081F84200119900200863FFE7FFE799
:103B30001198006850E8030F20F010000590FFE78F
:103B400005991198026842E803100028F0D1FFE7B8
:103B5000FFE71198C06BFDF769FEFFE7119902209E
:103B600048631198818DC28D891A89B2FFF75EFE74
:103B700017E0BDF826001199898D884210D1FFE722
:103B80001198C06BC069B0F5807F08D1FFE711992B
:103B9000022048631198818DFFF748FEFFE7FFE799
:103BA000FFE779E01199888DC98D401AADF81200B0
:103BB0001198C08D00284ED0FFE7BDF812000028F4
:103BC00049D0FFE7FFE7FFE71198006850E8030FCF
:103BD00020F490700390FFE703991198026842E87F
:103BE00003100028F0D1FFE7FFE7FFE7FFE7119898
:103BF000006850E8050F20F001000290FFE70299ED
:103C00001198026842E805100028F0D1FFE7FFE7AD
:103C10001199202081F84200119900200863FFE7E4
:103C2000FFE71198006850E8030F20F010000190A2
:103C3000FFE701991198026842E803100028F0D1CB
:103C4000FFE7FFE71199022048631198BDF81210B1
:103C5000FFF7ECFDFFE71FE09DF84000000600289D
:103C60000AD5FFE79DF83C000006002804D5FFE7D1
:103C7000119800F015FF0FE09DF840004006002865
:103C80000AD5FFE79DF83C004006002804D5FFE771
:103C9000119800F06DFDFFE712B080BD80B582B0D5
:103CA0000090009820B9FFE701208DF8070040E060
:103CB0000098806908B1FFE700E0FFE7009890F8FE
:103CC000410040B9FFE70099002081F840000098CA
:103CD00000F034F8FFE70099242081F841000098B3
:103CE0000168C86820F40050C860009800F008FE21
:103CF00000980168086920F4904008610098016804
:103D0000486920F02A00486100980168C86840F4BA
:103D10000050C860009900204864009A202182F871
:103D20004110009A82F84210009948638DF807000C
:103D3000FFE79DF8070002B080BD000080B58CB0A1
:103D40000B9000200A9009900890079006900B981D
:103D5000006841F20041C4F20101884240F09780BE
:103D6000FFE7FFE70020059043F64400C4F202009D
:103D7000016841F020010160006800F0200005901A
:103D80000598FFE7FFE70020049043F63000C4F2F7
:103D90000200016841F040010160006800F040004D
:103DA00004900498FFE74FF48440069002200790A7
:103DB0000020029008900320099008200A9041F604
:103DC0000000C4F2020006A9FEF710F8029940F6BE
:103DD0007420C2F20000039046F22842C4F20202AC
:103DE00002604FF0206242608160C1604FF48062E7
:103DF000026141618161C1614FF40032026241623E
:103E0000FDF73CFF18B1FFE7FCF7B2FDFFE7FFE766
:103E10000B9840F67421C2F20001C1630B988863CD
:103E2000FFE740F6D420C2F20000019046F2A04124
:103E3000C4F2020101604FF02061416040218160C5
:103E40000021C1604FF48062026141618161C16102
:103E50004FF4003202624162FDF710FF18B1FFE734
:103E6000FCF786FDFFE7FFE70B9840F6D421C2F28E
:103E7000000181630B988863FFE7472000900022D0
:103E80001146FEF741FA0098FEF734FAFFE70CB04E
:103E900080BD000080B584B002900191ADF8022091
:103EA000029890F84200202817D1FFE7019820B12E
:103EB000FFE7BDF8020020B9FFE701208DF80F00F1
:103EC0000FE002990020086302980199BDF80220D2
:103ED00000F0B4FD8DF80F0003E002208DF80F0014
:103EE000FFE79DF80F0004B080BD000080B582B0F0
:103EF00001900198006841F20041C4F2010188423A
:103F00001DD1FFE703F012FB014640F27803C2F235
:103F10000003009318685A689B688B604A600860C9
:103F200002F0E4FE00990246012082F8BC0440F64B
:103F3000C430C2F200000C22FFF7ACFFFFE702B072
:103F400080BD000081B0009001B07047FFE7FEE740
:103F5000FFE7FEE7FFE7FEE788B0079006910592CE
:103F6000079800F0070004900498C0F107000528A6
:103F700003D3FFE70420019004E00498C0F1070098
:103F80000190FFE70198039004980430062803D8B5
:103F9000FFE70020009003E0049803380090FFE75B
:103FA0000098029006980399012202FA01F1013962
:103FB0000840029B984005999A40013A11400843F5
:103FC00008B07047704700007047000080B582B0AD
:103FD000009000980138B0F1807F03D3FFE7012003
:103FE000019019E0009801384EF21401CEF2000160
:103FF00008604FF0FF300F2103F0BEFA4EF21801B7
:10400000CEF20001002008604EF21002CEF2000253
:10401000072111600190FFE7019802B080BD000008
:1040200080B5FEF7DDF840F60C40C2F200000068F3
:1040300003F040FA40F60020C2F200000068016878
:104040008968884740F27000C2F20000006801F001
:10405000B7FF80BD4EF68851CEF20001086840F4EB
:10406000700008607047000083B0029001910298D0
:104070000068009002980021C4F20101884225D016
:10408000FFE70298B0F1804F20D0FFE7029840F29E
:104090000041C4F20001884218D0FFE7029840F6C0
:1040A0000001C4F20001884210D0FFE7029840F6F8
:1040B0000041C4F20001884208D0FFE7029840F2B4
:1040C0000041C4F2010188420AD1FFE7009820F0C4
:1040D0007000009001984168009808430090FFE745
:1040E00002980021C4F20101884255D0FFE70298EE
:1040F000B0F1804F50D0FFE7029840F20041C4F287
:104100000001884248D0FFE7029840F60001C4F25F
:104110000001884240D0FFE7029840F60041C4F217
:104120000001884238D0FFE7029840F20041C4F213
:104130000101884230D0FFE7029844F20001C4F246
:104140000101884228D0FFE7029844F20041C4F2FE
:104150000101884220D0FFE7029844F60001C4F232
:104160000101884218D0FFE7029841F60001C4F22D
:104170000001884210D0FFE7029841F60041C4F2E6
:104180000001884208D0FFE7029842F20001C4F221
:10419000000188420AD1FFE7009820F440700090A7
:1041A0000198C168009808430090FFE7009820F04C
:1041B000800001994969084300900198806802993C
:1041C000C862019800680299886202980021C4F2CE
:1041D0000101884208D0FFE7029840F20041C4F292
:1041E0000101884205D1FFE701980069029908633F
:1041F000FFE70299086840F0040008600299012076
:10420000486100980299086003B0704784B0039039
:1042100002910192029800F01F0101208840009055
:10422000009A0399086A904308620198029901F084
:104230001F0100FA01F20399086A1043086204B0F2
:104240007047000085B00490039102920193049896
:1042500080680090009820F47F40009003980299B5
:10426000019A41EA02210143009808430090009816
:104270000499886005B0704783B00290019102985C
:1042800080680090009820F07000009001980099DC
:10429000084340F00700009000980299886003B03E
:1042A0007047000085B0049003910498006A019063
:1042B0000499086A20F001000862049840680090A0
:1042C000049880690290029820F070000290029891
:1042D00020F00300029003980168029808430290BE
:1042E000019820F00200019003988168019808432A
:1042F000019004980021C4F20101884208D0FFE730
:10430000049840F20041C4F2010188420ED1FFE757
:10431000019820F0080001900398C16801980843B3
:104320000190019820F004000190FFE7049800211B
:10433000C4F20101884208D0FFE7049840F200412E
:10434000C4F20101884213D1FFE7009820F4807085
:104350000090009820F40070009003984169009844
:104360000843009003988169009808430090FFE794
:1043700000980499486002980499886103984068FD
:104380000499486301980499086205B070470000D9
:1043900085B0049003910498006A01900499086A1A
:1043A00020F010000862049840680090049880692A
:1043B0000290029820F4E0400290029820F44070AD
:1043C000029003980168029840EA01200290019847
:1043D00020F02000019003988168019840EA0110C4
:1043E000019004980021C4F20101884208D0FFE73F
:1043F000049840F20041C4F2010188420FD1FFE766
:10440000019820F0800001900398C168019840EA6B
:1044100001100190019820F040000190FFE70498FE
:104420000021C4F20101884208D0FFE7049840F25D
:104430000041C4F20101884215D1FFE7009820F441
:1044400080600090009820F400600090039841691B
:10445000009840EA8100009003988169009840EA42
:1044600081000090FFE70098049948600298049941
:1044700088610398406804998863019804990862E8
:1044800005B0704785B0049003910498006A0190CC
:104490000499086A20F480700862049840680090CB
:1044A0000498C0690290029820F07000029002986F
:1044B00020F00300029003980168029808430290DC
:1044C000019820F40070019003988168019840EAF7
:1044D0000120019004980021C4F20101884208D013
:1044E000FFE7049840F20041C4F2010188420FD175
:1044F000FFE7019820F4006001900398C1680198DB
:1045000040EA01200190019820F480600190FFE7CB
:1045100004980021C4F20101884208D0FFE7049802
:1045200040F20041C4F20101884215D1FFE7009832
:1045300020F480500090009820F4005000900398E0
:104540004169009840EA0110009003988169009841
:1045500040EA01100090FFE7009804994860029833
:104560000499C861039840680499C8630198049944
:10457000086205B07047000085B00490039104986C
:10458000006A01900499086A20F480500862049837
:10459000406800900498C0690290029820F4E040BE
:1045A0000290029820F440700290039801680298EB
:1045B00040EA01200290019820F4005001900398F5
:1045C0008168019840EA0130019004980021C4F20A
:1045D0000101884208D0FFE7049840F20041C4F28C
:1045E000010188420BD1FFE7009820F48040009041
:1045F00003984169009840EA81100090FFE7009815
:104600000499486002980499C86103984068049925
:10461000086401980499086205B0704785B0049059
:10462000039102920498006A00900499086A20F0AD
:1046300001000862049880690190019820F0F00060
:1046400001900299019840EA01100190009820F031
:104650000A0000900399009808430090019804997B
:10466000886100980499086205B0704785B004908D
:10467000039102920498006A00900499086A20F05D
:1046800010000862049880690190019820F470403D
:1046900001900299019840EA01300190009820F0C1
:1046A000A00000900399009840EA01100090019842
:1046B0000499886100980499086205B07047000069
:1046C00080B582B001900198806B00900099002025
:1046D000C8850098FFF7B0F802B080BD84B00390A1
:1046E000FFE7FFE70398006850E8030F20F490709D
:1046F0000290FFE702990398026842E8031000283D
:10470000F0D1FFE7FFE7FFE7FFE70398006850E815
:10471000050F20F001000190FFE70199039802685E
:1047200042E805100028F0D1FFE7FFE70398006B8F
:10473000012814D1FFE7FFE7FFE70398006850E87E
:10474000030F20F010000090FFE700990398026823
:1047500042E803100028F0D1FFE7FFE7FFE70399E5
:10476000202081F8420003990020086304B07047BC
:1047700080B582B0019001980168C86820F04000BF
:10478000C8600199202081F841000198FFF7DAFB09
:10479000002002B080BD000080B586B004900020EB
:1047A00003900290049890F84200222840F0A080E4
:1047B000FFE704988068B0F5805F13D1FFE70498A5
:1047C000006978B9FFE70498806A0290049800684D
:1047D00040686FF35F20029908800499886A02306C
:1047E000886223E00498806A039004988068B0F59A
:1047F000805F08D0FFE70498806850B9FFE704980D
:10480000006930B9FFE704980068406803990870B0
:1048100007E004980068406800F07F000399087082
:10482000FFE70499886A01308862FFE70499C88D20
:104830000138C8850004002856D1FFE704980168B4
:10484000C86820F02000C86004980168C86820F497
:104850008070C86004980168486920F001004861D0
:104860000499202081F842000499002048630498AC
:10487000006B012830D1FFE7049900200863FFE7AF
:10488000FFE70498006850E8030F20F01000019043
:10489000FFE701990498026842E803100028F0D16C
:1048A000FFE7FFE7049800680068C00600280ED5FF
:1048B000FFE7FFE700200090049800680068009080
:1048C00004980068406800900098FFE7FFE70498AC
:1048D000818DFEF7ABFF03E00498FFF707FBFFE7CE
:1048E00000208DF8170007E000208DF8170003E086
:1048F00002208DF81700FFE79DF8170006B080BD75
:1049000080B586B0059005980068006920F4405095
:10491000059A1168D26810430861059988680B6987
:104920004A69C96918431043084304900598006810
:10493000C06849F20C6188430499084305990968E5
:10494000C86005980068406920F44070059A1168B5
:104950009269104348610598006841F20001C4F271
:104960000101884209D0FFE70598006841F2004143
:10497000C4F20101884204D1FFE7FDF731FE039044
:1049800003E0FDF71BFE0390FFE70598C069B0F553
:10499000004F29D1FFE703981921A0FB0101059AD7
:1049A0001368029353685A00DB0FFBF794FC0299DB
:1049B000864648F21F53C5F2EB13AEFB03204209B3
:1049C00010014FF0640C02FB1CEC322202EBCC0213
:1049D000A2FB0332F82303EA521300EB4300C2F3B5
:1049E00042121044886026E003981921A0FB0101BF
:1049F000059A1368019353689A009B0FFBF76BFCB1
:104A00000199844648F21F52C5F2EB12ACFB02300A
:104A10004309642003FB10CC322000EB0C10A0FBF8
:104A20000202F02000EA521000EB0310C2F343121E
:104A300010448860FFE706B080BD000083B002909C
:104A40000191ADF80220019802998862BDF8020038
:104A500002998885BDF802000299C8850299002054
:104A600048640299222081F842000298006938B116
:104A7000FFE702980168C86840F48070C860FFE7EB
:104A800002980168486940F0010048610298016895
:104A9000C86840F02000C860002003B070470000E4
:104AA00083B00190019890F8410021283AD1FFE7A6
:104AB00001988068B0F5805F13D1FFE70198006925
:104AC00078B9FFE70198006A0090009800886FF3BA
:104AD0005F200199096848600199086A02300862FC
:104AE00008E0019A106A411C116200780199096876
:104AF0004860FFE70199C88C0138C884000468B990
:104B0000FFE701980168C86820F08000C86001983C
:104B10000168C86840F04000C860FFE700208DF8D9
:104B20000B0003E002208DF80B00FFE79DF80B005F
:104B300003B0704780B540F6C430C2F20000FEF703
:104B40007FFE80BDFFE7FEE780B502F069FD02F061
:104B500071FD02F079FD02F081FD80BD80B582B06B
:104B600041F60040C4F2020000904FF4805101224F
:104B70000192FDF717FB0098019A4FF40061FDF7D1
:104B800011FB0098019A4FF48061FDF70BFB02B016
:104B900080BD000080B500F001F880BD80B540F612
:104BA000C430C2F2000040F27801C2F200010C22CF
:104BB000FFF770F980BD000080B58CB00B900A91B2
:104BC0000992ADF822300B98FCF78AF908B9FFE793
:104BD0000EE00A980290002004900590BDF8220093
:104BE00006900B98099A02A901ABFBF7EFFEFFE7CD
:104BF0000CB080BD82B001908DED000AFFE79DED05
:104C0000000A0199086849684A1C49F24001C0F24B
:104C10000201B1FBF2F201EE102AB8EE411A20EEC9
:104C2000010ABCEEC00A80ED0B0A9DED000A019856
:104C300042680132B1FBF2F101EE101AB8EE411AEE
:104C400020EE010ABCEEC00A80ED030AFFE702B0C5
:104C50007047000080B582B0012001900020FEF76F
:104C6000A5F840F20000C2F20000006844F6D351FB
:104C7000C1F26201A0FB0110400A01994843009073
:104C80004EF21001CEF20001086840F00200086008
:104C900000984EF21402CEF200021060086840F054
:104CA0000100086002B080BD85B004908DED030A5C
:104CB00002910298F8B9FFE79DED030AB2EE041ADB
:104CC00020EE010AB0EE041A30EE010A9FED411AFF
:104CD00080EE010A0498006890ED0B1AB8EE411AB4
:104CE00020EE010ABCEEC00A10EE101A049800680B
:104CF00040F8341F6CE00298042820D1FFE79DEDB6
:104D0000030AB2EE041A20EE010AB0EE041A30EEE5
:104D1000010A9FED301A80EE010A0498006890EDB8
:104D20000B1AB8EE411A20EE010ABCEEC00A10EED2
:104D3000101A0498006840F8381F019046E0029865
:104D4000082820D1FFE79DED030AB2EE041A20EEF9
:104D5000010AB0EE041A30EE010A9FED1E1A80EE31
:104D6000010A0498006890ED0B1AB8EE411A20EE83
:104D7000010ABCEEC00A10EE101A0498006840F850
:104D80003C1F00901FE09DED030AB2EE041A20EED6
:104D9000010AB0EE041A30EE010A9FED0E1A80EE01
:104DA000010A0498006890ED0B1AB8EE411A20EE43
:104DB000010ABCEEC00A10EE101A0498006840F810
:104DC000401F0090FFE700980190FFE70198FFE780
:104DD00005B070470000C842B0B586B041F204008B
:104DE000CEF200000068059000F0B2FC40F2A00096
:104DF000C2F2000001680598002302934FF0FF3CC7
:104E00001A46E1FB0C0240F2B001C2F2000100912F
:104E10004A6008600868496840F28C04C2F20004E5
:104E20002268FBF758FA029B02468C46009940F232
:104E3000C000C2F20000C0F804C00260D1F800C097
:104E40004968D0F800E042682468AEFB04E502FB44
:104E50000452BCEB0E0C61EB020240F2C801C2F23C
:104E600000010391C1F800C04A60006840F2A4024A
:104E7000C2F20002049210600868496840F294028D
:104E8000C2F2000201921268FBF725FADDF804C0B5
:104E9000029B049A014603989180016840689288B9
:104EA000DCF800C002FB0CF28A1A60F1000040F24C
:104EB000D001C2F200010A6048600868496840F207
:104EC0009802C2F200021268FBF705FA0499C88042
:104ED00006B0B0BD80B582B0FFF77EFF40F2A400FF
:104EE000C2F20000016883884FF47A7201FB02313C
:104EF00000EE101AB8EE400AC08801EE100AB8EEB3
:104F0000C11A9FED062A21EE021A30EE010A8DED3C
:104F1000010A9DED010A02B080BD00BF6F12833A05
:104F200080B594B008A83021FBF784FA00200790E0
:104F30000690059004900390FFE70020029043F64E
:104F40004000C4F20200016841F080510160006835
:104F500000F0805002900298FFE7FFE700200190E8
:104F600047F20000C4F20000016841F48041016092
:104F7000006800F4804001900198FFE7012008904C
:104F80004FF48030099002200E904FF480010F9171
:104F900006211091A821119112900420139008A8C5
:104FA000FDF7A4FB18B1FFE7FBF7E2FCFFE70F20DA
:104FB000039002200490002005904FF4A05006902A
:104FC0004FF48050079003A80521FDF7BFF918B1F1
:104FD000FFE7FBF7CDFCFFE714B080BD84B0029083
:104FE0000191ADF80220029828B9FFE74FF6FF7053
:104FF000ADF80E0021E0FFE70198411E0191B8B124
:10500000FFE70298411C029100788DF80100BDF87D
:1050100002109DF801004840C2B247F6C050C0F6E9
:10502000000030F8120080EA1120ADF80200E3E73A
:10503000BDF80200ADF80E00FFE7BDF80E0004B0A9
:105040007047000080B586B0049003910020ADF851
:105050000A00049820B1FFE70398022803D8FFE76D
:105060000020059026E00498039902394FF6FF725C
:10507000FFF7B4FFADF80A009DF80A10049A0398F0
:10508000104410F8022C0020914201900DD1FFE74E
:105090009DF80B00049A0399114411F8011C401A61
:1050A000B0FA80F040090190FFE7019800F001009C
:1050B0000590FFE7059806B080BD000080B58EB072
:1050C00001210C9100200A900B910490059006900C
:1050D00007900990089040F62420C2F2000000904A
:1050E00004A90191FBF71EFD0098FCF73DFB009819
:1050F00002210291FBF740FC01990E200D900990CE
:1051000040F64C20C2F200000390FBF70BFD039821
:10511000FCF72AFB02990398FBF72EFC0EB080BD2A
:1051200080B582B001904EF6FC51CEF200010868C5
:1051300040F08070086041F20401CEF200010020CE
:10514000086041F20002CEF20002116841F0010154
:105150001160019944F24022C0F20F024A4340F22A
:105160008C01C2F200010A600A6844F6D353C1F20E
:105170006203A2FB0332920940F29403C2F20003DD
:105180001A6009684DF68362C4F21B32A1FB02214A
:10519000890C40F29802C2F20002116040F2A001B4
:1051A000C2F20001086000F0D3FA02B080BD000036
:1051B00080B582B00190009101980099FEF7B2FA93
:1051C00002B080BD80B5FFF779FFA820FFF7A8FFE8
:1051D00000F004F8FFF7DEFC80BD000080B584B06D
:1051E00041F60040C4F2020001904FF480610022B9
:1051F0000292FCF7D7FF0198029A4FF40061FCF786
:10520000D1FF0198029A4FF48051FCF7CBFF0020A8
:10521000C4F20200102101220392FCF7C3FF039A9B
:1052200040F20040C4F202001146FCF7BBFF04B09C
:1052300080BD000080B582B0019000910198009976
:10524000FEF78AF902B080BD80B584B0FFE7002088
:10525000039043F63000C4F20200016841F480017B
:105260000160006800F4800003900398FFE7392094
:105270000090002201921146FDF746F80098FDF7D4
:1052800039F8019A452002901146FDF73DF8029841
:10529000FDF730F804B080BD80B582B040F6242020
:1052A000C2F20000009046F20041C4F20001016029
:1052B00003214160002101918160C1604FF41022FF
:1052C00002614FF400124261017641768176C17627
:1052D00001774177FCF736F818B1FFE7FBF748FB99
:1052E000FFE702B080BD000080B582B040F64C20E0
:1052F000C2F20000009046F60001C4F20001016015
:1053000003214160002101918160C1604FF41022AE
:1053100002614FF400124261017641768176C176D6
:1053200001774177FCF70EF818B1FFE7FBF720FB98
:10533000FFE702B080BD000080B592B00020119060
:1053400010900F900E900D90FFE700200C9043F608
:105350003000C4F20200016841F0020101600068FF
:1053600000F002000C900C98FFE7FFE700200B9084
:1053700043F63000C4F20200016841F040010160D0
:10538000006800F040000B900B98FFE7FFE700205B
:105390000A9043F63000C4F20200016841F00101B6
:1053A0000160006800F001000A900A98FFE7FFE73B
:1053B0000020099043F63000C4F20200016841F079
:1053C00008010160006800F0080009900998FFE7F3
:1053D000FFE70020089043F63000C4F202000168A5
:1053E00041F080010160006800F08000089008989A
:1053F000FFE7FFE70020079043F63000C4F2020009
:10540000016841F020010160006800F02000079071
:105410000798FFE741F60040C4F2020003904FF402
:10542000E051019101220292FCF7BCFE40200D9058
:10543000022005900E90002004900F901090032001
:10544000119041F20040C4F202000DA90691FCF750
:10545000CDFCDDF804C0029B0398049A0699CDF8B0
:1054600034C00E930F921092FCF7C0FC049A05987A
:1054700006994FF480430D930E900F921092119065
:1054800040F60040C4F20200FCF7B0FC12B080BD50
:1054900080B598B000210191179116911591149142
:1054A00013911291119110910F910E910D910C91F8
:1054B0000B910A9109910891079106910591049128
:1054C000039140F63430C2F2000002900022C4F290
:1054D00001020260A7224260816044F61F62C2603E
:1054E000016141618161FDF76FFD18B1FFE7FBF7D5
:1054F0003FFAFFE74FF48050149040F63430C2F288
:10550000000014A9FDF7E8FD18B1FFE7FBF730FA3A
:10551000FFE740F63430C2F20000FDF7CBFF18B1D0
:10552000FFE7FBF725FAFFE700201290139040F603
:105530003430C2F2000012A9FDF7B4FC18B1FFE745
:10554000FBF716FAFFE760200B9000220C920D92F9
:105550000E920F921092119240F63430C2F2000077
:105560000BA9FDF705FF18B1FFE7FBF701FAFFE70D
:1055700040F63430C2F200000BA90422FDF7F8FE19
:1055800018B1FFE7FBF7F4F9FFE740F63430C2F259
:1055900000000BA90822FDF7EBFE18B1FFE7FBF7AF
:1055A000E7F9FFE740F63430C2F200000BA90C2205
:1055B000FDF7DEFE18B1FFE7FBF7DAF9FFE70020A1
:1055C000039004900590069007904FF400510891C5
:1055D0000A9040F63430C2F2000003A9FDF708FC3F
:1055E00018B1FFE7FBF7C4F9FFE740F63430C2F229
:1055F0000000FDF733FE18B080BD000080B598B004
:105600000021019117911691159114911391129106
:10561000119110910F910E910D910C910B910A9196
:10562000099108910791069105910491039140F623
:105630007C30C2F20000029040F20042C4F201024B
:105640000260A7224260816044F61F62C26001616D
:1056500041618161FDF7B8FC18B1FFE7FBF788F9FC
:10566000FFE74FF48050149040F67C30C2F2000007
:1056700014A9FDF731FD18B1FFE7FBF779F9FFE752
:1056800040F67C30C2F20000FDF714FF18B1FFE7CE
:10569000FBF76EF9FFE700201290139040F67C3084
:1056A000C2F2000012A9FDF7FDFB18B1FFE7FBF7FE
:1056B0005FF9FFE760200B9000220C920D920E9292
:1056C0000F921092119240F67C30C2F200000BA9AA
:1056D000FDF74EFE18B1FFE7FBF74AF9FFE740F68A
:1056E0007C30C2F200000BA90422FDF741FE18B184
:1056F000FFE7FBF73DF9FFE740F67C30C2F2000020
:105700000BA90822FDF734FE18B1FFE7FBF730F9CB
:10571000FFE70020039004900590069007904FF457
:10572000005108910A9040F67C30C2F2000003A9B3
:10573000FDF75EFB18B1FFE7FBF71AF9FFE740F64C
:105740007C30C2F20000FDF789FD18B080BD00007A
:1057500081B040F2D800C2F20000007870BBFFE7D1
:1057600040F2D801C2F200010120087041F20400A9
:10577000CEF2000000680090009840F29001C2F262
:1057800000010968884208D2FFE740F2A001C2F296
:105790000001086801300860FFE741F20400CEF222
:1057A0000000006840F29001C2F20001086040F27F
:1057B000D801C2F2000100200870FFE701B0704775
:1057C00084B00290029890ED0E0A90ED101A30EE1F
:1057D000010A8DED000A029890ED0D0A90ED0E2A57
:1057E00090ED0F1A30EE020A30EE010A8DED010A3B
:1057F000019803909DED030AB0EEC00A029890ED67
:10580000121AB4EE410AF1EE10FA12DDFFE7029827
:1058100090ED0A0A90ED0E1A20EE010AB5EE400A4C
:10582000F1EE10FA04DDFFE7029900200864FFE7BB
:10583000FFE79DED000A029890ED131AB4EE410ABD
:10584000F1EE10FA0DDCFFE79DED000A029890EDF5
:10585000131AB1EE411AB4EE410AF1EE10FA04DA6D
:10586000FFE7029900200864FFE704B070470000DA
:1058700080B582B040F6C430C2F20000019041F21F
:105880000041C4F2010101604FF4E13141600021A7
:105890008160C16001610C2242618161C161FEF7DA
:1058A000FDF918B1FFE7FBF763F8FFE702B080BD31
:1058B00080B588B00290029880690390039820F028
:1058C000004002F095F941EC100B8DED000B0298B1
:1058D000806C02F08DF941EC100B9FED411B53ECF5
:1058E000112B51EC100B02F085F89DED000B41ECF3
:1058F000110B53EC112B51EC100B02F0B9F908B954
:10590000FFE769E0029890ED060A90ED071A30EE85
:10591000410A8DED070A9DED070AB0EEC00A029814
:10592000806906909DED061AB0EEC11A80EE010A5C
:105930009FED2D1AB4EE410AF1EE10FA08DDFFE7F3
:105940000299002088650299486D0130486523E07E
:10595000029890ED060A90ED071A30EE410A8DED9F
:10596000050A9DED050AB0EEC00A02988069049010
:105970009DED041AB0EEC11A80EE010A9FED1B1ACC
:10598000B4EE410AF1EE10FA05DAFFE70299886DEC
:1059900001308865FFE7FFE70298406DB0F5FA7FB8
:1059A00009DDFFE70299012081F85C0002990020DF
:1059B00081F85D00FFE70298806DB0F5967F0BDD02
:1059C000FFE70299002081F85C00029A012182F829
:1059D0005D1002994865FFE708B080BD00BF00BFB9
:1059E0007B14AE47E17A843FCDCC4C3FCDCC4C3ECE
:1059F00082B00090009890ED0A0A90ED0E1A20EE09
:105A0000010AB5EE400AF1EE10FA16DDFFE7009844
:105A1000806A01909DED010AB0EEC00A009890EDF9
:105A2000121AB4EE410AF1EE10FA01DCFFE704E0CD
:105A3000009900200864FFE7FFE702B0704700000C
:105A400081B00090009890ED020A90ED0A1A90ED56
:105A50000B2A31EE021AB0EE002A81EE021A20EE75
:105A6000010A80ED100A01B07047000084B0009078
:105A7000009890ED0A0A90ED0E1A20EE010AB5EE9C
:105A8000400AF1EE10FA45DDFFE70098806A0190C8
:105A90009DED010AB0EEC00A009890ED051AB4EE33
:105AA000410AF1EE10FA01DCFFE733E00098806A6A
:105AB00003909DED030AB0EEC00A009890ED041A21
:105AC00090ED052A31EE021AB4EE410AF1EE10FA19
:105AD0001BDCFFE7009890ED040A806A02909DEDC0
